01REMESSA                 0025000011080       CENTRAIS DE ABASTECIMENTO DO R041BANRISUL       250724                                                                                                                                                                                                                                                                                                      000001
1                0025000011080       5501083-JULHO/24         0010210054                                   10100102100540108240000000602682041     08N25072418   000000000000                                             0227829903000136A MAIS SUL HORTIFRUTI TRANSP. LTDA      AV. FERNANDO FERRARI, 1001                     1000090200041PORTO ALEGRE   RS                                           000002
1                0025000011080       5500403-JULHO/24         0010210135                                   10100102101350108240000001718337041     08N25072418   000000000000                                             0292222199000110A. BORGES TRANSP. E COM. DE BANANA      AV. FERNANDO FERRARI, 1001                     1000090200041PORTO ALEGRE   RS                                           000003
1                0025000011080       5500240-JULHO/24         0010210216                                   10100102102160108240000001046816041     08N25072418   000000000000                                             0288060173000146A. FLOR IMPORT. EXPORT. LTDA            AV. FERNANDO FERRARI, 1001                     1000090200041PORTO ALEGRE   RS                                           000004
1                0025000011080       5500980-JULHO/24         0010210399                                   10100102103990108240000000258170041     08N25072418   000000000000                                             0210949627000147ADMF HORTIFR. LTDA - ME                 AV. FERNANDO FERRARI, 1001                     1000090200041PORTO ALEGRE   RS                                           000005
1                0025000011080       5500913-JULHO/24         0010210488                                   10100102104880108240000001760051041     08N25072418   000000000000                                             0208920660000100AGROATACADO COM. DE ALIMENTOS E PL      AV. FERNANDO FERRARI, 1001                     1000090200041PORTO ALEGRE   RS                                           000006
1                0025000011080       5500991-JULHO/24         0010210542                                   10100102105420108240000001986322041     08N25072418   000000000000                                             0223428572000171ALCIDES SOTER DE OLIVERA - EPP          AV. FERNANDO FERRARI, 1001                     1000090200041PORTO ALEGRE   RS                                           000007
1                0025000011080       5500706-JULHO/24         0010210623                                   10100102106230108240000001714977041     08N25072418   000000000000                                             0204449167000195ALHO SUL LTDA                           AV. FERNANDO FERRARI, 1001                     1000090200041PORTO ALEGRE   RS                                           000008
1                0025000011080       5300648-JULHO/24         0010210704                                   10100102107040108240000000216430041     08N25072418   000000000000                                             0230802239000146ALMIRO EUGENIO MUNIZ SOARES             AV. FERNANDO FERRARI, 1001                     1000090200041PORTO ALEGRE   RS                                           000009
1                0025000011080       5300655-JULHO/24         0010210887                                   10100102108870108240000000110655041     08N25072418   000000000000                                             0241957121000103ALTAMIRO BATISTA VITORIA                AV. FERNANDO FERRARI, 1001                     1000090200041PORTO ALEGRE   RS                                           000010
1                0025000011080       5501062-JULHO/24         0010210968                                   10100102109680108240000000957741041     08N25072418   000000000000                                             0236497784000152AMD COM. DE HORTIFRUTI LTDA             AV. FERNANDO FERRARI, 1001                     1000090200041PORTO ALEGRE   RS                                           000011
1                0025000011080       5500987-JULHO/24         0010211042                                   10100102110420108240000000153378041     08N25072418   000000000000                                             0215304666000100ANA JULIA DA SILVA - ME                 AV. FERNANDO FERRARI, 1001                     1000090200041PORTO ALEGRE   RS                                           000012
1                0025000011080       5500927-JULHO/24         0010211123                                   10100102111230108240000000562661041     08N25072418   000000000000                                             0202637077000100ANDRE BRANDT - ME                       AV. FERNANDO FERRARI, 1001                     1000090200041PORTO ALEGRE   RS                                           000013
1                0025000011080       5501047-JULHO/24         0010211204                                   10100102112040108240000000649942041     08N25072418   000000000000                                             0231981241000192ANDRE LUIS RECH                         AV. FERNANDO FERRARI, 1001                     1000090200041PORTO ALEGRE   RS                                           000014
1                0025000011080       5501034-JULHO/24         0010211387                                   10100102113870108240000000522959041     08N25072418   000000000000                                             0227810297000107ANDREAZZA & FILHOS FRUTAS SELEC. L      AV. FERNANDO FERRARI, 1001                     1000090200041PORTO ALEGRE   RS                                           000015
1                0025000011080       5501034-JULHO/24         0010211468                                   10100102114680108240000000658715041     08N25072418   000000000000                                             0227810297000107ANDREAZZA & FILHOS FRUTAS SELEC. L      AV. FERNANDO FERRARI, 1001                     1000090200041PORTO ALEGRE   RS                                           000016
1                0025000011080       5501124-JULHO/24         0010211530                                   10100102115300108240000000644516041     08N25072418   000000000000                                             0218884697000176ARGUI COM. DE ALIM. E PROD. LIMPEZ      AV. FERNANDO FERRARI, 1001                     1000090200041PORTO ALEGRE   RS                                           000017
1                0025000011080       5501095-JULHO/24         0010211875                                   10100102118750108240000000562661041     08N25072418   000000000000                                             0245385175000100ATACADISTA DE HORT. IRMAOS OLIVEIR      AV. FERNANDO FERRARI, 1001                     1000090200041PORTO ALEGRE   RS                                           000018
1                0025000011080       5500920-JULHO/24         0010211956                                   10100102119560108240000000223126041     08N25072418   000000000000                                             0200240594000108ATACADO DE FRUTAS E LEGUMES JEROMI      AV. FERNANDO FERRARI, 1001                     1000090200041PORTO ALEGRE   RS                                           000019
1                0025000011080       5300651-JULHO/24         0010212030                                   10100102120300108240000000215216041     08N25072418   000000000000                                             0294435898000174AUPERCON ESCRITORIO CONTABIL            AV. FERNANDO FERRARI, 1001                     1000090200041PORTO ALEGRE   RS                                           000020
1                0025000011080       5500741-JULHO/24         0010212294                                   10100102122940108240000000155729041     08N25072418   000000000000                                             0205439231000110AURORA COMERCIO DE VINHOS LTDA          AV. FERNANDO FERRARI, 1001                     1000090200041PORTO ALEGRE   RS                                           000021
1                0025000011080       5500741-JULHO/24         0010212111                                   10100102121110108240000000155729041     08N25072418   000000000000                                             0205439231000110AURORA COMERCIO DE VINHOS LTDA          AV. FERNANDO FERRARI, 1001                     1000090200041PORTO ALEGRE   RS                                           000022
1                0025000011080       5501112-JULHO/24         0010212375                                   10100102123750108240000000223477041     08N25072418   000000000000                                             0290628637000110AYRTON ZANINI E FILHO LTDA              AV. FERNANDO FERRARI, 1001                     1000090200041PORTO ALEGRE   RS                                           000023
1                0025000011080       5300613-JULHO/24         0010212456                                   10100102124560108240000000415390041     08N25072418   000000000000                                             0200450688000101BAINGO GUNTHER COMERCIO LTDA            AV. FERNANDO FERRARI, 1001                     1000090200041PORTO ALEGRE   RS                                           000024
1                0025000011080       5500793-JULHO/24         0010212529                                   10100102125290108240000001687985041     08N25072418   000000000000                                             0205034266000250BANABORGES- PRODUCOES DE BANANAS L      AV. FERNANDO FERRARI, 1001                     1000090200041PORTO ALEGRE   RS                                           000025
1                0025000011080       5500928-JULHO/24         0010212618                                   10100102126180108240000000577301041     08N25072418   000000000000                                             0211280270000110BANALEFFA COM. E TRANSP. DE FRUTAS      AV. FERNANDO FERRARI, 1001                     1000090200041PORTO ALEGRE   RS                                           000026
1                0025000011080       7500017-JULHO/24         0010212863                                   10100102128630108240000002566704041     08N25072418   000000000000                                             0292702067016866BANCO DO ESTADO DO RIO GRANDE DO S      AV. FERNANDO FERRARI, 1001                     1000090200041PORTO ALEGRE   RS                                           000027
1                0025000011080       5500982-JULHO/24         0010212944                                   10100102129440108240000000712130041     08N25072418   000000000000                                             0215456954000180BANDEIRA COMERCIO DE HORTIFRUTI LT      AV. FERNANDO FERRARI, 1001                     1000090200041PORTO ALEGRE   RS                                           000028
1                0025000011080       5300573-JULHO/24         0010213029                                   10100102130290108240000000335397041     08N25072418   000000000000                                             0200512052000147BETO'S  LANCHERIA LTDA                  AV. FERNANDO FERRARI, 1001                     1000090200041PORTO ALEGRE   RS                                           000029
1                0025000011080       5300573-JULHO/24         0010213118                                   10100102131180108240000000355526041     08N25072418   000000000000                                             0200512052000147BETO'S  LANCHERIA LTDA                  AV. FERNANDO FERRARI, 1001                     1000090200041PORTO ALEGRE   RS                                           000030
1                0025000011080       5501020-JULHO/24         0010213363                                   10100102133630108240000000151821041     08N25072418   000000000000                                             0214066116000138BIA LEMOS COM.DE FLORES E PLANTAS       AV. FERNANDO FERRARI, 1001                     1000090200041PORTO ALEGRE   RS                                           000031
1                0025000011080       5501020-JULHO/24         0010213282                                   10100102132820108240000000151066041     08N25072418   000000000000                                             0214066116000138BIA LEMOS COM.DE FLORES E PLANTAS       AV. FERNANDO FERRARI, 1001                     1000090200041PORTO ALEGRE   RS                                           000032
1                0025000011080       5300580-JULHO/24         0010213444                                   10100102134440108240000001805962041     08N25072418   000000000000                                             0203423023000105BOM GAUCHO COMERCIAL DE ALIMENTOS       AV. FERNANDO FERRARI, 1001                     1000090200041PORTO ALEGRE   RS                                           000033
1                0025000011080       5501050-JULHO/24         0010213517                                   10100102135170108240000000166858041     08N25072418   000000000000                                             0230098583000104BONET & FREITAS COM. VAREJ.DE FLOR      AV. FERNANDO FERRARI, 1001                     1000090200041PORTO ALEGRE   RS                                           000034
1                0025000011080       5500518-JULHO/24         0010213606                                   10100102136060108240000000470993041     08N25072418   000000000000                                             0293305522000182BOONE E DIETRICH LTDA                   AV. FERNANDO FERRARI, 1001                     1000090200041PORTO ALEGRE   RS                                           000035
1                0025000011080       5500639-JULHO/24         0010213770                                   10100102137700108240000000881301041     08N25072418   000000000000                                             0294480050000167BORGES COMERCIO DE FRUTAS LTDA          AV. FERNANDO FERRARI, 1001                     1000090200041PORTO ALEGRE   RS                                           000036
1                0025000011080       5500639-JULHO/24         0010213851                                   10100102138510108240000002315189041     08N25072418   000000000000                                             0294480050000167BORGES COMERCIO DE FRUTAS LTDA          AV. FERNANDO FERRARI, 1001                     1000090200041PORTO ALEGRE   RS                                           000037
1                0025000011080       5801940-JULHO/24         0010213932                                   10100102139320108240000000752497041     08N25072418   000000000000                                             0207309322000166BORSOI CONSTR. E EDIF. EIRELI           AV. FERNANDO FERRARI, 1001                     1000090200041PORTO ALEGRE   RS                                           000038
1                0025000011080       5501089-JULHO/24         0010214106                                   10100102141060108240000000961047041     08N25072418   000000000000                                             0221264785000180BRASIL FRUTAS LTDA                      AV. FERNANDO FERRARI, 1001                     1000090200041PORTO ALEGRE   RS                                           000039
1                0025000011080       5501089-JULHO/24         0010214017                                   10100102140170108240000000562661041     08N25072418   000000000000                                             0221264785000180BRASIL FRUTAS LTDA                      AV. FERNANDO FERRARI, 1001                     1000090200041PORTO ALEGRE   RS                                           000040
1                0025000011080       5500020-JULHO/24         0010214270                                   10100102142700108240000001937107041     08N25072418   000000000000                                             0287935912000133BRAULIO COMERCIAL DE FR.E LEG. LTD      AV. FERNANDO FERRARI, 1001                     1000090200041PORTO ALEGRE   RS                                           000041
1                0025000011080       5501086-JULHO/24         0010214351                                   10100102143510108240000000309135041     08N25072418   000000000000                                             0223855072000116BRUNO CESAR LOSINA RODRIGUES            AV. FERNANDO FERRARI, 1001                     1000090200041PORTO ALEGRE   RS                                           000042
1                0025000011080       5500019-JULHO/24         0010214432                                   10100102144320108240000000571434041     08N25072418   000000000000                                             0201198982000130CARMEN ELENA WEIRICH-ME                 AV. FERNANDO FERRARI, 1001                     1000090200041PORTO ALEGRE   RS                                           000043
1                0025000011080       5500593-JULHO/24         0010214505                                   10100102145050108240000000953395041     08N25072418   000000000000                                             0293923571000189CCB EMBALAGENS LTDA                     AV. FERNANDO FERRARI, 1001                     1000090200041PORTO ALEGRE   RS                                           000044
1                0025000011080       5500097-JULHO/24         0010214688                                   10100102146880108240000000224355041     08N25072418   000000000000                                             0200719689000109CELSO JOSE BARTH                        AV. FERNANDO FERRARI, 1001                     1000090200041PORTO ALEGRE   RS                                           000045
1                0025000011080       5300590-JULHO/24         0010214769                                   10100102147690108240000000186673041     08N25072418   000000000000                                             0202603554000109CELULAR CRT S.A                         AV. FERNANDO FERRARI, 1001                     1000090200041PORTO ALEGRE   RS                                           000046
1                0025000011080       5500860-JULHO/24         0010214858                                   10100102148580108240000000223477041     08N25072418   000000000000                                             0290180621000197CEREALISTA OLIVEIRA LTDA                AV. FERNANDO FERRARI, 1001                     1000090200041PORTO ALEGRE   RS                                           000047
1                0025000011080       5500971-JULHO/24         0010214920                                   10100102149200108240000000664582041     08N25072418   000000000000                                             0211826017000119CHS COMERCIO DE FRUTAS E LEGUMES L      AV. FERNANDO FERRARI, 1001                     1000090200041PORTO ALEGRE   RS                                           000048
1                0025000011080       5500397-JULHO/24         0010215005                                   10100102150050108240000001798442041     08N25072418   000000000000                                             0201519355000154CIRO COM.DE EMBALAGENS LTDA - UNIS      AV. FERNANDO FERRARI, 1001                     1000090200041PORTO ALEGRE   RS                                           000049
1                0025000011080       5500994-JULHO/24         0010215188                                   10100102151880108240000000562661041     08N25072418   000000000000                                             0223274788000120CITRUS BOHN COM. E SERV. LTDA-ME        AV. FERNANDO FERRARI, 1001                     1000090200041PORTO ALEGRE   RS                                           000050
1                0025000011080       5500901-JULHO/24         0010215269                                   10100102152690108240000000226987041     08N25072418   000000000000                                             0207724799000108CLAUDIO CHIES TRANSPORTES               AV. FERNANDO FERRARI, 1001                     1000090200041PORTO ALEGRE   RS                                           000051
1                0025000011080       5300605-JULHO/24         0010215358                                   10100102153580108240000002228938041     08N25072418   000000000000                                             0205601594000290CLEANBOX HIGIENIZACAO DE CAIXAS LT      AV. FERNANDO FERRARI, 1001                     1000090200041PORTO ALEGRE   RS                                           000052
1                0025000011080       5500907-JULHO/24         0010215420                                   10100102154200108240000000224355041     08N25072418   000000000000                                             0206307924000111CLEDIOMAR DE QUADROS ULRICH             AV. FERNANDO FERRARI, 1001                     1000090200041PORTO ALEGRE   RS                                           000053
1                0025000011080       5500981-JULHO/24         0010215595                                   10100102155950108240000000677234041     08N25072418   000000000000                                             0272257645000115COM. ATAC. DE FRUTAS SCHWANCK LTDA      AV. FERNANDO FERRARI, 1001                     1000090200041PORTO ALEGRE   RS                                           000054
1                0025000011080       5500845-JULHO/24         0010215676                                   10100102156760108240000000642046041     08N25072418   000000000000                                             0208265521000182COM. DE PRODUTOS HORTIG. BRASIL-SU      AV. FERNANDO FERRARI, 1001                     1000090200041PORTO ALEGRE   RS                                           000055
1                0025000011080       5500708-JULHO/24         0010215757                                   10100102157570108240000000562661041     08N25072418   000000000000                                             0286849064000187COM. E TRANSP. DE FRUTAS SELAU LTD      AV. FERNANDO FERRARI, 1001                     1000090200041PORTO ALEGRE   RS                                           000056
1                0025000011080       5500807-JULHO/24         0010215838                                   10100102158380108240000000872979041     08N25072418   000000000000                                             0207264865000104COM. HORT. CRESTANI LTDA                AV. FERNANDO FERRARI, 1001                     1000090200041PORTO ALEGRE   RS                                           000057
1                0025000011080       5500102-JULHO/24         0010215919                                   10100102159190108240000001125324041     08N25072418   000000000000                                             0203606170000293COM.DE FRUTAS MARIN LTDA                AV. FERNANDO FERRARI, 1001                     1000090200041PORTO ALEGRE   RS                                           000058
1                0025000011080       5500114-JULHO/24         0010216095                                   10100102160950108240000000579034041     08N25072418   000000000000                                             0293367050000192COM.DE FRUTAS REINHEIMER LTDA           AV. FERNANDO FERRARI, 1001                     1000090200041PORTO ALEGRE   RS                                           000059
1                0025000011080       5500358-JULHO/24         0010216176                                   10100102161760108240000001143283041     08N25072418   000000000000                                             0290180589000140COM.DE LARANJAS VALE DO CAI LTDA        AV. FERNANDO FERRARI, 1001                     1000090200041PORTO ALEGRE   RS                                           000060
1                0025000011080       5500322-JULHO/24         0010216257                                   10100102162570108240000000467484041     08N25072418   000000000000                                             0290388687000177COM.DE OVOS GAZOLA LTDA                 AV. FERNANDO FERRARI, 1001                     1000090200041PORTO ALEGRE   RS                                           000061
1                0025000011080       5500031-JULHO/24         0010216338                                   10100102163380108240000000577301041     08N25072418   000000000000                                             0292666536000240COM.DE PROD. ALIM. FRIGORIFICADOS       AV. FERNANDO FERRARI, 1001                     1000090200041PORTO ALEGRE   RS                                           000062
1                0025000011080       5500876-JULHO/24         0010216419                                   10100102164190108240000001977565041     08N25072418   000000000000                                             0205968298000141COMERCIAL AGRICOLA DE GRANDO LTDA       AV. FERNANDO FERRARI, 1001                     1000090200041PORTO ALEGRE   RS                                           000063
1                0025000011080       5500876-JULHO/24         0010216583                                   10100102165830108240000002472621041     08N25072418   000000000000                                             0205968298000141COMERCIAL AGRICOLA DE GRANDO LTDA       AV. FERNANDO FERRARI, 1001                     1000090200041PORTO ALEGRE   RS                                           000064
1                0025000011080       5501007-JULHO/24         0010216664                                   10100102166640108240000002792662041     08N25072418   000000000000                                             0211000651000106COMERCIAL ATACADISTA SIMON LTDA         AV. FERNANDO FERRARI, 1001                     1000090200041PORTO ALEGRE   RS                                           000065
1                0025000011080       5501031-JULHO/24         0010216745                                   10100102167450108240000000456878041     08N25072418   000000000000                                             0230134268000187COMERCIAL BRASIL SUL FRUTAS LTDA        AV. FERNANDO FERRARI, 1001                     1000090200041PORTO ALEGRE   RS                                           000066
1                0025000011080       5501125-JULHO/24         0010216826                                   10100102168260108240000000222688041     08N25072418   000000000000                                             0205597069000168COMERCIAL DE ALIMENTOS S H LTDA         AV. FERNANDO FERRARI, 1001                     1000090200041PORTO ALEGRE   RS                                           000067
1                0025000011080       5300632-JULHO/24         0010216907                                   10100102169070108240000002054684041     08N25072418   000000000000                                             0211473047000199COMERCIAL DE ALIMENTOS SOUL LTDA        AV. FERNANDO FERRARI, 1001                     1000090200041PORTO ALEGRE   RS                                           000068
1                0025000011080       5300643-JULHO/24         0010217083                                   10100102170830108240000000786124041     08N25072418   000000000000                                             0294384666000134COMERCIAL DE CARNES BE LTDA - ME        AV. FERNANDO FERRARI, 1001                     1000090200041PORTO ALEGRE   RS                                           000069
1                0025000011080       5500791-JULHO/24         0010217164                                   10100102171640108240000000649663041     08N25072418   000000000000                                             0209381943000186COMERCIAL DE FRUTAS FERNANDES LTDA      AV. FERNANDO FERRARI, 1001                     1000090200041PORTO ALEGRE   RS                                           000070
1                0025000011080       5500955-JULHO/24         0010217245                                   10100102172450108240000001680089041     08N25072418   000000000000                                             0200913495000140COMERCIAL DE FRUTAS MAGNATA LTDA M      AV. FERNANDO FERRARI, 1001                     1000090200041PORTO ALEGRE   RS                                           000071
1                0025000011080       5500882-JULHO/24         0010217326                                   10100102173260108240000000577301041     08N25072418   000000000000                                             0208956563000160COMERCIAL DE FRUTAS SUL TORRES LTD      AV. FERNANDO FERRARI, 1001                     1000090200041PORTO ALEGRE   RS                                           000072
1                0025000011080       5501056-JULHO/24         0010217407                                   10100102174070108240000000766106041     08N25072418   000000000000                                             0228121167000120COMERCIAL DE FRUTAS VS LTDA             AV. FERNANDO FERRARI, 1001                     1000090200041PORTO ALEGRE   RS                                           000073
1                0025000011080       5500898-JULHO/24         0010217571                                   10100102175710108240000000570374041     08N25072418   000000000000                                             0206914500000115COMERCIAL DE OVOS PEDRO LTDA            AV. FERNANDO FERRARI, 1001                     1000090200041PORTO ALEGRE   RS                                           000074
1                0025000011080       5500873-JULHO/24         0010217652                                   10100102176520108240000000562661041     08N25072418   000000000000                                             0208934935000157COMERCIAL DUARTE SELAU LTDA - ME        AV. FERNANDO FERRARI, 1001                     1000090200041PORTO ALEGRE   RS                                           000075
1                0025000011080       5500939-JULHO/24         0010217733                                   10100102177330108240000001318059041     08N25072418   000000000000                                             0211187819000126COMERCIAL HORTIFR. FATIMA LTDA          AV. FERNANDO FERRARI, 1001                     1000090200041PORTO ALEGRE   RS                                           000076
1                0025000011080       5500890-JULHO/24         0010217814                                   10100102178140108240000002736491041     08N25072418   000000000000                                             0202396412000207COMERCIO DE FRUTAS BOMFIM EIRELI        AV. FERNANDO FERRARI, 1001                     1000090200041PORTO ALEGRE   RS                                           000077
1                0025000011080       5500005-JULHO/24         0010217997                                   10100102179970108240000001133216041     08N25072418   000000000000                                             0295039095000163COMERCIO DE FRUTAS DANIEL LTDA          AV. FERNANDO FERRARI, 1001                     1000090200041PORTO ALEGRE   RS                                           000078
1                0025000011080       5501008-JULHO/24         0010218071                                   10100102180710108240000001823630041     08N25072418   000000000000                                             0201121306000169COMERCIO DE FRUTAS METZ                 AV. FERNANDO FERRARI, 1001                     1000090200041PORTO ALEGRE   RS                                           000079
1                0025000011080       5501043-JULHO/24         0010218152                                   10100102181520108240000000554765041     08N25072418   000000000000                                             0202583609000590COMERCIO DE MUDAS DALLEMOLE LDTA        AV. FERNANDO FERRARI, 1001                     1000090200041PORTO ALEGRE   RS                                           000080
1                0025000011080       5500961-JULHO/24         0010218233                                   10100102182330108240000001542219041     08N25072418   000000000000                                             0213140739000140COMERCIO E TRANSP. DE FRUTAS NEVES      AV. FERNANDO FERRARI, 1001                     1000090200041PORTO ALEGRE   RS                                           000081
1                0025000011080       5501042-JULHO/24         0010218314                                   10100102183140108240000000829113041     08N25072418   000000000000                                             0294384666000134COML DE CARNES BE - CRESTANI            AV. FERNANDO FERRARI, 1001                     1000090200041PORTO ALEGRE   RS                                           000082
1                0025000011080       5500750-JULHO/24         0010218497                                   10100102184970108240000000558274041     08N25072418   000000000000                                             0205505712000186COML FRUTAS E LEG. LEMES E KRUG LT      AV. FERNANDO FERRARI, 1001                     1000090200041PORTO ALEGRE   RS                                           000083
1                0025000011080       5500879-JULHO/24         0010218640                                   10100102186400108240000000881301041     08N25072418   000000000000                                             0209049259000100COML. AGRIC. FORTISUL LTDA              AV. FERNANDO FERRARI, 1001                     1000090200041PORTO ALEGRE   RS                                           000084
1                0025000011080       5500879-JULHO/24         0010218578                                   10100102185780108240000000662676041     08N25072418   000000000000                                             0209049259000100COML. AGRIC. FORTISUL LTDA              AV. FERNANDO FERRARI, 1001                     1000090200041PORTO ALEGRE   RS                                           000085
1                0025000011080       5500051-JULHO/24         0010218721                                   10100102187210108240000001125324041     08N25072418   000000000000                                             0200994074000190COML.DE FRUTAS GIAMAR LTDA              AV. FERNANDO FERRARI, 1001                     1000090200041PORTO ALEGRE   RS                                           000086
1                0025000011080       5500601-JULHO/24         0010219078                                   10100102190780108240000001368072041     08N25072418   000000000000                                             0293985570000169COML.HORTIFRUTIGRANJEIROS B.R. LTD      AV. FERNANDO FERRARI, 1001                     1000090200041PORTO ALEGRE   RS                                           000087
1                0025000011080       5500601-JULHO/24         0010218985                                   10100102189850108240000000231373041     08N25072418   000000000000                                             0293985570000169COML.HORTIFRUTIGRANJEIROS B.R. LTD      AV. FERNANDO FERRARI, 1001                     1000090200041PORTO ALEGRE   RS                                           000088
1                0025000011080       5501110-JULHO/24         0010219140                                   10100102191400108240000000222951041     08N25072418   000000000000                                             0287755799000104COMPANHIA TISCHLER DE SUPERMERCADO      AV. FERNANDO FERRARI, 1001                     1000090200041PORTO ALEGRE   RS                                           000089
1                0025000011080       5500841-JULHO/24         0010219221                                   10100102192210108240000000151066041     08N25072418   000000000000                                             0209607798000109CONCEICAO DA ROSA MOLLER                AV. FERNANDO FERRARI, 1001                     1000090200041PORTO ALEGRE   RS                                           000090
1                0025000011080       5400169-JULHO/24         0010219302                                   10100102193020108240000000113638041     08N25072418   000000000000                                             0219372591000156COOP.TRAB.DE TRABALHADORES SETORIZ      AV. FERNANDO FERRARI, 1001                     1000090200041PORTO ALEGRE   RS                                           000091
1                0025000011080       5501061-JULHO/24         0010219485                                   10100102194850108240000000231373041     08N25072418   000000000000                                             0285667947001851COOPERATIVA AGROINDUSTRIAL COPERJA      AV. FERNANDO FERRARI, 1001                     1000090200041PORTO ALEGRE   RS                                           000092
1                0025000011080       5501065-JULHO/24         0010219558                                   10100102195580108240000000322890041     08N25072418   000000000000                                             0206975532000120COOPERATIVA DE CREDITO MUTUO...- C      AV. FERNANDO FERRARI, 1001                     1000090200041PORTO ALEGRE   RS                                           000093
1                0025000011080       5400167-JULHO/24         0010219639                                   10100102196390108240000000223477041     08N25072418   000000000000                                             0298338072000148COOPERATIVA MISTA SAO LUIZ LTDA         AV. FERNANDO FERRARI, 1001                     1000090200041PORTO ALEGRE   RS                                           000094
1                0025000011080       5500935-JULHO/24         0010219728                                   10100102197280108240000001577984041     08N25072418   000000000000                                             0211248652000166CPA SUL COM. PROD. AGRICOLAS LTDA       AV. FERNANDO FERRARI, 1001                     1000090200041PORTO ALEGRE   RS                                           000095
1                0025000011080       5501060-JULHO/24         0010219892                                   10100102198920108240000001697385041     08N25072418   000000000000                                             0208929934000114DAGEMAR ANTONIO DELLAGOSTIN             AV. FERNANDO FERRARI, 1001                     1000090200041PORTO ALEGRE   RS                                           000096
1                0025000011080       5501064-JULHO/24         0010219973                                   10100102199730108240000000412549041     08N25072418   000000000000                                             0216957084000196DENILSON GONCALVES DOS SANTOS           AV. FERNANDO FERRARI, 1001                     1000090200041PORTO ALEGRE   RS                                           000097
1                0025000011080       5500416-JULHO/24         0010220033                                   10100102200330108240000002047033041     08N25072418   000000000000                                             0289513113000102DICO COMERCIAL FR. E LEGUMES LTDA       AV. FERNANDO FERRARI, 1001                     1000090200041PORTO ALEGRE   RS                                           000098
1                0025000011080       5501117-JULHO/24         0010220114                                   10100102201140108240000001116550041     08N25072418   000000000000                                             0251410904000126DIEGO COM. DE HORTIGRANJEIROS LTDA      AV. FERNANDO FERRARI, 1001                     1000090200041PORTO ALEGRE   RS                                           000099
1                0025000011080       5300661-JULHO/24         0010220297                                   10100102202970108240000000354062041     08N25072418   000000000000                                             0248002928000131DIEISON ALMEIDA SCALCOM 0246462701      AV. FERNANDO FERRARI, 1001                     1000090200041PORTO ALEGRE   RS                                           000100
1                0025000011080       5500962-JULHO/24         0010220378                                   10100102203780108240000003929123041     08N25072418   000000000000                                             0214136525000163DIRETA - LOGISTICA DE ALIMENTOS LT      AV. FERNANDO FERRARI, 1001                     1000090200041PORTO ALEGRE   RS                                           000101
1                0025000011080       5500015-JULHO/24         0010220459                                   10100102204590108240000001336379041     08N25072418   000000000000                                             0202486848000106DISTR.FRUTAL DE HORTIFRGRNJ.IMP.EX      AV. FERNANDO FERRARI, 1001                     1000090200041PORTO ALEGRE   RS                                           000102
1                0025000011080       5501085-JULHO/24         0010220521                                   10100102205210108240000000222688041     08N25072418   000000000000                                             0209402568000103DIVA MARIA BENDER LOTTERMANN            AV. FERNANDO FERRARI, 1001                     1000090200041PORTO ALEGRE   RS                                           000103
1                0025000011080       5500390-JULHO/24         0010220602                                   10100102206020108240000001304272041     08N25072418   000000000000                                             0292031855000106DODO COMERCIO DE FR. E LEG. LTDA        AV. FERNANDO FERRARI, 1001                     1000090200041PORTO ALEGRE   RS                                           000104
1                0025000011080       5500678-JULHO/24         0010220866                                   10100102208660108240000000740310041     08N25072418   000000000000                                             0293804417000198DONATO J. GOSSLER E CIA LTDA            AV. FERNANDO FERRARI, 1001                     1000090200041PORTO ALEGRE   RS                                           000105
1                0025000011080       5500678-JULHO/24         0010220785                                   10100102207850108240000001884142041     08N25072418   000000000000                                             0293804417000198DONATO J. GOSSLER E CIA LTDA            AV. FERNANDO FERRARI, 1001                     1000090200041PORTO ALEGRE   RS                                           000106
1                0025000011080       5501102-JULHO/24         0010220947                                   10100102209470108240000000229619041     08N25072418   000000000000                                             0224932405000126DOUGLAS SERAFIM NETO                    AV. FERNANDO FERRARI, 1001                     1000090200041PORTO ALEGRE   RS                                           000107
1                0025000011080       5500085-JULHO/24         0010221102                                   10100102211020108240000000649942041     08N25072418   000000000000                                             0200992371000105E UNGARETTI ESCOBAR                     AV. FERNANDO FERRARI, 1001                     1000090200041PORTO ALEGRE   RS                                           000108
1                0025000011080       5500085-JULHO/24         0010221021                                   10100102210210108240000000661350041     08N25072418   000000000000                                             0200992371000105E UNGARETTI ESCOBAR                     AV. FERNANDO FERRARI, 1001                     1000090200041PORTO ALEGRE   RS                                           000109
1                0025000011080       5500846-JULHO/24         0010221285                                   10100102212850108240000001978442041     08N25072418   000000000000                                             0208181460000175E.O. DUARTE - EPP                       AV. FERNANDO FERRARI, 1001                     1000090200041PORTO ALEGRE   RS                                           000110
1                0025000011080       5300623-JULHO/24         0010221366                                   10100102213660108240000000372726041     08N25072418   000000000000                                             0207266025000180EDSON ANDRE MALLMANN - ME               AV. FERNANDO FERRARI, 1001                     1000090200041PORTO ALEGRE   RS                                           000111
1                0025000011080       5300657-JULHO/24         0010221447                                   10100102214470108240000000184964041     08N25072418   000000000000                                             0232585264000140EDSON COLOMBO GOULART                   AV. FERNANDO FERRARI, 1001                     1000090200041PORTO ALEGRE   RS                                           000112
1                0025000011080       5300662-JULHO/24         0010221528                                   10100102215280108240000000223477041     08N25072418   000000000000                                             0210414617000107EL DUQUE IMP. E DISTRIB. LTDA           AV. FERNANDO FERRARI, 1001                     1000090200041PORTO ALEGRE   RS                                           000113
1                0025000011080       5501114-JULHO/24         0010221692                                   10100102216920108240000000426004041     08N25072418   000000000000                                             0202945891000184ELAIZE SILVA PEZZI & CIA LTDA           AV. FERNANDO FERRARI, 1001                     1000090200041PORTO ALEGRE   RS                                           000114
1                0025000011080       5500041-JULHO/24         0010221773                                   10100102217730108240000000476696041     08N25072418   000000000000                                             0201446995000181EMBALAGENS FLEXIVEIS SOL LTDA           AV. FERNANDO FERRARI, 1001                     1000090200041PORTO ALEGRE   RS                                           000115
1                0025000011080       5500714-JULHO/24         0010221935                                   10100102219350108240000000789633041     08N25072418   000000000000                                             0204122218000170EMBALAGENS NASCIMENTO LTDA              AV. FERNANDO FERRARI, 1001                     1000090200041PORTO ALEGRE   RS                                           000116
1                0025000011080       5500714-JULHO/24         0010221854                                   10100102218540108240000000957782041     08N25072418   000000000000                                             0204122218000170EMBALAGENS NASCIMENTO LTDA              AV. FERNANDO FERRARI, 1001                     1000090200041PORTO ALEGRE   RS                                           000117
1                0025000011080       5501122-JULHO/24         0010222028                                   10100102220280108240000000558277041     08N25072418   000000000000                                             0250113238000100EQF HORTIFRUTIGRANJEIROS LTDA           AV. FERNANDO FERRARI, 1001                     1000090200041PORTO ALEGRE   RS                                           000118
1                0025000011080       5501059-JULHO/24         0010222192                                   10100102221920108240000001941055041     08N25072418   000000000000                                             0237157163000192ERS COM. DE ALIMENTOS LTDA              AV. FERNANDO FERRARI, 1001                     1000090200041PORTO ALEGRE   RS                                           000119
1                0025000011080       5501059-JULHO/24         0010222273                                   10100102222730108240000001919199041     08N25072418   000000000000                                             0237157163000192ERS COM. DE ALIMENTOS LTDA              AV. FERNANDO FERRARI, 1001                     1000090200041PORTO ALEGRE   RS                                           000120
1                0025000011080       5501104-JULHO/24         0010222354                                   10100102223540108240000000151943041     08N25072418   000000000000                                             0248062507000104ESTACAO DAS FLORES COM. E ATAC. LT      AV. FERNANDO FERRARI, 1001                     1000090200041PORTO ALEGRE   RS                                           000121
1                0025000011080       5501019-JULHO/24         0010222435                                   10100102224350108240000000224355041     08N25072418   000000000000                                             0222878736000108EVERTON KUNST - ME                      AV. FERNANDO FERRARI, 1001                     1000090200041PORTO ALEGRE   RS                                           000122
1                0025000011080       5500743-JULHO/24         0010222508                                   10100102225080108240000000450355041     08N25072418   000000000000                                             0205474930000109EVERTON LUIS RAMOS PINTO.               AV. FERNANDO FERRARI, 1001                     1000090200041PORTO ALEGRE   RS                                           000123
1                0025000011080       5500743-JULHO/24         0010222680                                   10100102226800108240000000483874041     08N25072418   000000000000                                             0205474930000109EVERTON LUIS RAMOS PINTO.               AV. FERNANDO FERRARI, 1001                     1000090200041PORTO ALEGRE   RS                                           000124
1                0025000011080       5300658-JULHO/24         0010222761                                   10100102227610108240000000488059041     08N25072418   000000000000                                             0234477132000120FABIO XAVIER DORNELLES                  AV. FERNANDO FERRARI, 1001                     1000090200041PORTO ALEGRE   RS                                           000125
1                0025000011080       5501077-JULHO/24         0010222923                                   10100102229230108240000000377210041     08N25072418   000000000000                                             0241828870000130FAZENDA ORGANICA PROD. DE MUDAS LT      AV. FERNANDO FERRARI, 1001                     1000090200041PORTO ALEGRE   RS                                           000126
1                0025000011080       5501077-JULHO/24         0010222842                                   10100102228420108240000000150188041     08N25072418   000000000000                                             0241828870000130FAZENDA ORGANICA PROD. DE MUDAS LT      AV. FERNANDO FERRARI, 1001                     1000090200041PORTO ALEGRE   RS                                           000127
1                0025000011080       5501044-JULHO/24         0010223008                                   10100102230080108240000000571434041     08N25072418   000000000000                                             0204693991000196FLAVIA REGINA DOS SANTOS                AV. FERNANDO FERRARI, 1001                     1000090200041PORTO ALEGRE   RS                                           000128
1                0025000011080       5500897-JULHO/24         0010223261                                   10100102232610108240000000247780041     08N25072418   000000000000                                             0204902760000145FOCATTO DISTRIBUIDORA DE ALIMENTOS      AV. FERNANDO FERRARI, 1001                     1000090200041PORTO ALEGRE   RS                                           000129
1                0025000011080       5500897-JULHO/24         0010223180                                   10100102231800108240000003745427041     08N25072418   000000000000                                             0204902760000145FOCATTO DISTRIBUIDORA DE ALIMENTOS      AV. FERNANDO FERRARI, 1001                     1000090200041PORTO ALEGRE   RS                                           000130
1                0025000011080       5501093-JULHO/24         0010223342                                   10100102233420108240000000302135041     08N25072418   000000000000                                             0239816473000105FOLHAGENS KELSH PROD.COM.FLORES E       AV. FERNANDO FERRARI, 1001                     1000090200041PORTO ALEGRE   RS                                           000131
1                0025000011080       5501005-JULHO/24         0010223423                                   10100102234230108240000000562661041     08N25072418   000000000000                                             0221309113000143FORTESUL IMP. DE FRUTAS LTDA            AV. FERNANDO FERRARI, 1001                     1000090200041PORTO ALEGRE   RS                                           000132
1                0025000011080       5501005-JULHO/24         0010223598                                   10100102235980108240000000977355041     08N25072418   000000000000                                             0221309113000143FORTESUL IMP. DE FRUTAS LTDA            AV. FERNANDO FERRARI, 1001                     1000090200041PORTO ALEGRE   RS                                           000133
1                0025000011080       5300634-JULHO/24         0010223679                                   10100102236790108240000000335397041     08N25072418   000000000000                                             0293991685000166FRUMAR FRUTOS DO MAR LTDA               AV. FERNANDO FERRARI, 1001                     1000090200041PORTO ALEGRE   RS                                           000134
1                0025000011080       5300634-JULHO/24         0010223768                                   10100102237680108240000000897752041     08N25072418   000000000000                                             0293991685000166FRUMAR FRUTOS DO MAR LTDA               AV. FERNANDO FERRARI, 1001                     1000090200041PORTO ALEGRE   RS                                           000135
1                0025000011080       5501109-JULHO/24         0010223830                                   10100102238300108240000000571434041     08N25072418   000000000000                                             0237743357000170FRUNORT TRANSPORTES EIRELI              AV. FERNANDO FERRARI, 1001                     1000090200041PORTO ALEGRE   RS                                           000136
1                0025000011080       5501094-JULHO/24         0010223911                                   10100102239110108240000000562661041     08N25072418   000000000000                                             0245158513000163FRUTAS IRMAOS FRITSCH                   AV. FERNANDO FERRARI, 1001                     1000090200041PORTO ALEGRE   RS                                           000137
1                0025000011080       5500528-JULHO/24         0010224098                                   10100102240980108240000001125938041     08N25072418   000000000000                                             0293396513000144FRUTASUL COMERCIO DE FRUTAS E VERD      AV. FERNANDO FERRARI, 1001                     1000090200041PORTO ALEGRE   RS                                           000138
1                0025000011080       5501015-JULHO/24         0010224179                                   10100102241790108240000000580207041     08N25072418   000000000000                                             0226078579000107FRUTILEFFA COM. E TRANSP. EIRELI -      AV. FERNANDO FERRARI, 1001                     1000090200041PORTO ALEGRE   RS                                           000139
1                0025000011080       5501058-JULHO/24         0010224268                                   10100102242680108240000000876914041     08N25072418   000000000000                                             0202423289000187FRUTSHOP - TROPICAL                     AV. FERNANDO FERRARI, 1001                     1000090200041PORTO ALEGRE   RS                                           000140
1                0025000011080       5500094-JULHO/24         0010224330                                   10100102243300108240000001136729041     08N25072418   000000000000                                             0202423289000187FRUTSHOP COMERCIO DE FRUTAS LTDA        AV. FERNANDO FERRARI, 1001                     1000090200041PORTO ALEGRE   RS                                           000141
1                0025000011080       5500719-JULHO/24         0010224411                                   10100102244110108240000000649064041     08N25072418   000000000000                                             0203792847000144FRUTTARE`S FRUTAS SELEC. LTDA           AV. FERNANDO FERRARI, 1001                     1000090200041PORTO ALEGRE   RS                                           000142
1                0025000011080       5500760-JULHO/24         0010224586                                   10100102245860108240000001120060041     08N25072418   000000000000                                             0205805199000149FRUTTI PADUA COM.TRANP. FRUTAS LTD      AV. FERNANDO FERRARI, 1001                     1000090200041PORTO ALEGRE   RS                                           000143
1                0025000011080       5500843-JULHO/24         0010224667                                   10100102246670108240000000554765041     08N25072418   000000000000                                             0207351188000161FRUTYS COMERCIO DE FRUTAS LTDA          AV. FERNANDO FERRARI, 1001                     1000090200041PORTO ALEGRE   RS                                           000144
1                0025000011080       5501055-JULHO/24         0010224748                                   10100102247480108240000000157188041     08N25072418   000000000000                                             0234034663000149GABRIEL FRANCISCO LOSINA RODRIGUES      AV. FERNANDO FERRARI, 1001                     1000090200041PORTO ALEGRE   RS                                           000145
1                0025000011080       5501119-JULHO/24         0010224829                                   10100102248290108240000000152664041     08N25072418   000000000000                                             0251555011000179GABRIELLI DE ANDRADE PRETTO             AV. FERNANDO FERRARI, 1001                     1000090200041PORTO ALEGRE   RS                                           000146
1                0025000011080       5500120-JULHO/24         0010225167                                   10100102251670108240000000330674041     08N25072418   000000000000                                             0204382889000170GAZOLA COM. DE HORTIFRUTIGRANJEIRO      AV. FERNANDO FERRARI, 1001                     1000090200041PORTO ALEGRE   RS                                           000147
1                0025000011080       5500120-JULHO/24         0010225086                                   10100102250860108240000000352607041     08N25072418   000000000000                                             0204382889000170GAZOLA COM. DE HORTIFRUTIGRANJEIRO      AV. FERNANDO FERRARI, 1001                     1000090200041PORTO ALEGRE   RS                                           000148
1                0025000011080       5500120-JULHO/24         0010224918                                   10100102249180108240000003087100041     08N25072418   000000000000                                             0204382889000170GAZOLA COM. DE HORTIFRUTIGRANJEIRO      AV. FERNANDO FERRARI, 1001                     1000090200041PORTO ALEGRE   RS                                           000149
1                0025000011080       5501039-JULHO/24         0010225248                                   10100102252480108240000000871885041     08N25072418   000000000000                                             0232104203000114GEAZI NEVES DA SILVA                    AV. FERNANDO FERRARI, 1001                     1000090200041PORTO ALEGRE   RS                                           000150
1                0025000011080       5500888-JULHO/24         0010225329                                   10100102253290108240000001165430041     08N25072418   000000000000                                             0201697435000108GENIO COMERCIO DE FRUTAS LTDA - ME      AV. FERNANDO FERRARI, 1001                     1000090200041PORTO ALEGRE   RS                                           000151
1                0025000011080       0113897-JULHO/24         0010225418                                   10100102254180108240000000148021041     08N25072418   000000000000                                             0100020192150049GERMANO STEFANI BETTIO                  AV. FERNANDO FERRARI, 1001                     1000090200041PORTO ALEGRE   RS                                           000152
1                0025000011080       0114212-JULHO/24         0010225574                                   10100102255740108240000000207453041     08N25072418   000000000000                                             0100031754708072GILBERTO FROHLICH                       AV. FERNANDO FERRARI, 1001                     1000090200041PORTO ALEGRE   RS                                           000153
1                0025000011080       5501033-JULHO/24         0010225736                                   10100102257360108240000002870558041     08N25072418   000000000000                                             0203415057000140GRUPO BELEBAS LTDA                      AV. FERNANDO FERRARI, 1001                     1000090200041PORTO ALEGRE   RS                                           000154
1                0025000011080       5800609-JULHO/24         0010225817                                   10100102258170108240000000836093041     08N25072418   000000000000                                             0293822781000180GUIDO JOSE BURG - ME                    AV. FERNANDO FERRARI, 1001                     1000090200041PORTO ALEGRE   RS                                           000155
1                0025000011080       5500976-JULHO/24         0010225906                                   10100102259060108240000000538751041     08N25072418   000000000000                                             0210568169000104HORLLE & CANAL COM. DE HORTIFRUTI       AV. FERNANDO FERRARI, 1001                     1000090200041PORTO ALEGRE   RS                                           000156
1                0025000011080       5501026-JULHO/24         0010226074                                   10100102260740108240000000151066041     08N25072418   000000000000                                             0291779678000170HORST COMERCIO DE CACTOS LTDA-ME        AV. FERNANDO FERRARI, 1001                     1000090200041PORTO ALEGRE   RS                                           000157
1                0025000011080       5501054-JULHO/24         0010226155                                   10100102261550108240000001398688041     08N25072418   000000000000                                             0218960231000102HORTA E POMAR DISTRIBUIDORA LTDA        AV. FERNANDO FERRARI, 1001                     1000090200041PORTO ALEGRE   RS                                           000158
1                0025000011080       5501100-JULHO/24         0010226236                                   10100102262360108240000000234211041     08N25072418   000000000000                                             0237949394000139HORTIFRUTI MARCHESE LTDA                AV. FERNANDO FERRARI, 1001                     1000090200041PORTO ALEGRE   RS                                           000159
1                0025000011080       5500029-JULHO/24         0010226317                                   10100102263170108240000002252615041     08N25072418   000000000000                                             0293003614000108HORTIGRANJEIRO GUIDO KREMER LTDA        AV. FERNANDO FERRARI, 1001                     1000090200041PORTO ALEGRE   RS                                           000160
1                0025000011080       5501101-JULHO/24         0010226406                                   10100102264060108240000000270325041     08N25072418   000000000000                                             0246231824000173HORTISUL DISTRIB. DE ALIMENTOS LTD      AV. FERNANDO FERRARI, 1001                     1000090200041PORTO ALEGRE   RS                                           000161
1                0025000011080       5500038-JULHO/24         0010226562                                   10100102265620108240000001292867041     08N25072418   000000000000                                             0201310332000135I.G. COMERCIO DE COCO E HORTIGRANJ      AV. FERNANDO FERRARI, 1001                     1000090200041PORTO ALEGRE   RS                                           000162
1                0025000011080       5500574-JULHO/24         0010226643                                   10100102266430108240000000562661041     08N25072418   000000000000                                             0293411924000161IRMAOS BIRNFELD LTDA                    AV. FERNANDO FERRARI, 1001                     1000090200041PORTO ALEGRE   RS                                           000163
1                0025000011080       5501052-JULHO/24         0010226724                                   10100102267240108240000000224355041     08N25072418   000000000000                                             0290120007000563IRMAOS LINKE & CIA LTDA                 AV. FERNANDO FERRARI, 1001                     1000090200041PORTO ALEGRE   RS                                           000164
1                0025000011080       5500531-JULHO/24         0010226805                                   10100102268050108240000002370652041     08N25072418   000000000000                                             0290710435000112IRMAOS NEDEL LTDA-ME                    AV. FERNANDO FERRARI, 1001                     1000090200041PORTO ALEGRE   RS                                           000165
1                0025000011080       5500808-JULHO/24         0010226988                                   10100102269880108240000001223007041     08N25072418   000000000000                                             0207520200000114IVANEI LORENZON & CIA LTDA              AV. FERNANDO FERRARI, 1001                     1000090200041PORTO ALEGRE   RS                                           000166
1                0025000011080       5500942-JULHO/24         0010227062                                   10100102270620108240000000571434041     08N25072418   000000000000                                             0210604733000199J P DUARTE HORTIFRUTIGRANJEIROS -       AV. FERNANDO FERRARI, 1001                     1000090200041PORTO ALEGRE   RS                                           000167
1                0025000011080       5500989-JULHO/24         0010227143                                   10100102271430108240000000226197041     08N25072418   000000000000                                             0220756083000150J. SAUZEN - ME                          AV. FERNANDO FERRARI, 1001                     1000090200041PORTO ALEGRE   RS                                           000168
1                0025000011080       5801941-JULHO/24         0010227224                                   10100102272240108240000000841853041     08N25072418   000000000000                                             0233851566000186J.B. COM. DE HORT. E TRANSP. EIREL      AV. FERNANDO FERRARI, 1001                     1000090200041PORTO ALEGRE   RS                                           000169
1                0025000011080       5500605-JULHO/24         0010227305                                   10100102273050108240000001702545041     08N25072418   000000000000                                             0290607441000149J.J.COMERCIO DE CEREAIS LTDA            AV. FERNANDO FERRARI, 1001                     1000090200041PORTO ALEGRE   RS                                           000170
1                0025000011080       5500870-JULHO/24         0010227488                                   10100102274880108240000003304388041     08N25072418   000000000000                                             0202708521000123JACOBY COM. DE LEG. E HORTIF. LTDA      AV. FERNANDO FERRARI, 1001                     1000090200041PORTO ALEGRE   RS                                           000171
1                0025000011080       5500870-JULHO/24         0010227550                                   10100102275500108240000000789633041     08N25072418   000000000000                                             0202708521000123JACOBY COM. DE LEG. E HORTIF. LTDA      AV. FERNANDO FERRARI, 1001                     1000090200041PORTO ALEGRE   RS                                           000172
1                0025000011080       5500996-JULHO/24         0010227631                                   10100102276310108240000000562661041     08N25072418   000000000000                                             0218009925000169JACSON L. DIEMER FRUTAS - ME            AV. FERNANDO FERRARI, 1001                     1000090200041PORTO ALEGRE   RS                                           000173
1                0025000011080       0113863-JULHO/24         0010227895                                   10100102278950108240000000103725041     08N25072418   000000000000                                             0100068343752015JAIRO ALTEMIR HOLDEFER                  AV. FERNANDO FERRARI, 1001                     1000090200041PORTO ALEGRE   RS                                           000174
1                0025000011080       0113863-JULHO/24         0010227712                                   10100102277120108240000000205698041     08N25072418   000000000000                                             0100068343752015JAIRO ALTEMIR HOLDEFER                  AV. FERNANDO FERRARI, 1001                     1000090200041PORTO ALEGRE   RS                                           000175
1                0025000011080       5500762-JULHO/24         0010227976                                   10100102279760108240000000223039041     08N25072418   000000000000                                             0205948010000177JANNE ALI M. S. YUSUF BAKLIZI E CI      AV. FERNANDO FERRARI, 1001                     1000090200041PORTO ALEGRE   RS                                           000176
1                0025000011080       5501115-JULHO/24         0010228050                                   10100102280500108240000000222863041     08N25072418   000000000000                                             0219423661000158JC FORGEARINI & CIA LTDA                AV. FERNANDO FERRARI, 1001                     1000090200041PORTO ALEGRE   RS                                           000177
1                0025000011080       5501049-JULHO/24         0010228131                                   10100102281310108240000000702545041     08N25072418   000000000000                                             0235086884000123JCR AGRO COMERCIO DE ALIMENTOS EIR      AV. FERNANDO FERRARI, 1001                     1000090200041PORTO ALEGRE   RS                                           000178
1                0025000011080       5500575-JULHO/24         0010228212                                   10100102282120108240000000789633041     08N25072418   000000000000                                             0201965867000144JOEL CANEPPELE VALERIO & CIA LTDA       AV. FERNANDO FERRARI, 1001                     1000090200041PORTO ALEGRE   RS                                           000179
1                0025000011080       0113934-JULHO/24         0010228395                                   10100102283950108240000000103725041     08N25072418   000000000000                                             0100041412486068JOSE BELARMINO ZATT PRETTO              AV. FERNANDO FERRARI, 1001                     1000090200041PORTO ALEGRE   RS                                           000180
1                0025000011080       0113934-JULHO/24         0010228476                                   10100102284760108240000000103967041     08N25072418   000000000000                                             0100041412486068JOSE BELARMINO ZATT PRETTO              AV. FERNANDO FERRARI, 1001                     1000090200041PORTO ALEGRE   RS                                           000181
1                0025000011080       5300599-JULHO/24         0010228549                                   10100102285490108240000000413630041     08N25072418   000000000000                                             0206307090000144JOSE VALMIR DA SILVA PINTO & CIA L      AV. FERNANDO FERRARI, 1001                     1000090200041PORTO ALEGRE   RS                                           000182
1                0025000011080       5500513-JULHO/24         0010228638                                   10100102286380108240000000558274041     08N25072418   000000000000                                             0287307831000199KRUG COM. ATAC. DE MELANCIAS LTDA       AV. FERNANDO FERRARI, 1001                     1000090200041PORTO ALEGRE   RS                                           000183
1                0025000011080       5300579-JULHO/24         0010228964                                   10100102289640108240000000102176041     08N25072418   000000000000                                             0273345100000123LANCHERIA GOMES LTDA-ME                 AV. FERNANDO FERRARI, 1001                     1000090200041PORTO ALEGRE   RS                                           000184
1                0025000011080       5300638-JULHO/24         0010229200                                   10100102292000108240000000102378041     08N25072418   000000000000                                             0218089983000140LANCHERIA LIMANA LTDA                   AV. FERNANDO FERRARI, 1001                     1000090200041PORTO ALEGRE   RS                                           000185
1                0025000011080       5300638-JULHO/24         0010229049                                   10100102290490108240000000137471041     08N25072418   000000000000                                             0218089983000140LANCHERIA LIMANA LTDA                   AV. FERNANDO FERRARI, 1001                     1000090200041PORTO ALEGRE   RS                                           000186
1                0025000011080       5300638-JULHO/24         0010229138                                   10100102291380108240000000101589041     08N25072418   000000000000                                             0218089983000140LANCHERIA LIMANA LTDA                   AV. FERNANDO FERRARI, 1001                     1000090200041PORTO ALEGRE   RS                                           000187
1                0025000011080       5300638-JULHO/24         0010229383                                   10100102293830108240000000088429041     08N25072418   000000000000                                             0218089983000140LANCHERIA LIMANA LTDA                   AV. FERNANDO FERRARI, 1001                     1000090200041PORTO ALEGRE   RS                                           000188
1                0025000011080       5500929-JULHO/24         0010229464                                   10100102294640108240000000649663041     08N25072418   000000000000                                             0200502216000155LEO NESTOR JUNG - ME                    AV. FERNANDO FERRARI, 1001                     1000090200041PORTO ALEGRE   RS                                           000189
1                0025000011080       5500937-JULHO/24         0010229618                                   10100102296180108240000000559151041     08N25072418   000000000000                                             0211266876000109LITORAL COMERCIO DE FRUTAS LTDA         AV. FERNANDO FERRARI, 1001                     1000090200041PORTO ALEGRE   RS                                           000190
1                0025000011080       5500947-JULHO/24         0010229790                                   10100102297900108240000000571434041     08N25072418   000000000000                                             0207605887000271LOG LEFFA TRANSPORTES LEFFA             AV. FERNANDO FERRARI, 1001                     1000090200041PORTO ALEGRE   RS                                           000191
1                0025000011080       5300666-JULHO/24         0010229871                                   10100102298710108240000000087552041     08N25072418   000000000000                                             0242955299000188LUCIANA DE ABREU                        AV. FERNANDO FERRARI, 1001                     1000090200041PORTO ALEGRE   RS                                           000192
1                0025000011080       5300665-JULHO/24         0010229952                                   10100102299520108240000000066614041     08N25072418   000000000000                                             0293841674000108LUDHI IND. E COM. DE CONFECCOES LT      AV. FERNANDO FERRARI, 1001                     1000090200041PORTO ALEGRE   RS                                           000193
1                0025000011080       5300572-JULHO/24         0010230012                                   10100102300120108240000000102176041     08N25072418   000000000000                                             0201971238000127LUIS FABIANO PINHO FERREIRA-ME          AV. FERNANDO FERRARI, 1001                     1000090200041PORTO ALEGRE   RS                                           000194
1                0025000011080       5500682-JULHO/24         0010230195                                   10100102301950108240000000562661041     08N25072418   000000000000                                             0289598247000165LUIS GILBERTO DIETRICH-ME               AV. FERNANDO FERRARI, 1001                     1000090200041PORTO ALEGRE   RS                                           000195
1                0025000011080       5500790-JULHO/24         0010230276                                   10100102302760108240000001674825041     08N25072418   000000000000                                             0207171602000150M D A COM. E TRANSP. DE CEREAIS LT      AV. FERNANDO FERRARI, 1001                     1000090200041PORTO ALEGRE   RS                                           000196
1                0025000011080       5500091-JULHO/24         0010230438                                   10100102304380108240000002609963041     08N25072418   000000000000                                             0292767011000110M.B.MOYSES & CIA LTDA                   AV. FERNANDO FERRARI, 1001                     1000090200041PORTO ALEGRE   RS                                           000197
1                0025000011080       5500091-JULHO/24         0010230357                                   10100102303570108240000000657841041     08N25072418   000000000000                                             0292767011000110M.B.MOYSES & CIA LTDA                   AV. FERNANDO FERRARI, 1001                     1000090200041PORTO ALEGRE   RS                                           000198
1                0025000011080       5501097-JULHO/24         0010230500                                   10100102305000108240000000449589041     08N25072418   000000000000                                             0201060735000173MACRO ATACADO KROLOW LTDA               AV. FERNANDO FERRARI, 1001                     1000090200041PORTO ALEGRE   RS                                           000199
1                0025000011080       5501091-JULHO/24         0010230683                                   10100102306830108240000000225232041     08N25072418   000000000000                                             0208225388000130MAFS COMERCIO DE HORTIFRUTI LTDA        AV. FERNANDO FERRARI, 1001                     1000090200041PORTO ALEGRE   RS                                           000200
1                0025000011080       5501066-JULHO/24         0010230764                                   10100102307640108240000000561783041     08N25072418   000000000000                                             0237544623000135MAGNUS E SCHEFFER LTDA                  AV. FERNANDO FERRARI, 1001                     1000090200041PORTO ALEGRE   RS                                           000201
1                0025000011080       5501082-JULHO/24         0010230845                                   10100102308450108240000000223477041     08N25072418   000000000000                                             0218201694000190MAKRO CHUI SUPERMERCADOS EIRELI         AV. FERNANDO FERRARI, 1001                     1000090200041PORTO ALEGRE   RS                                           000202
1                0025000011080       0113869-JULHO/24         0010230926                                   10100102309260108240000000103725041     08N25072418   000000000000                                             0100064620514004MARCELO LONGHI                          AV. FERNANDO FERRARI, 1001                     1000090200041PORTO ALEGRE   RS                                           000203
1                0025000011080       5500059-JULHO/24         0010231000                                   10100102310000108240000001125324041     08N25072418   000000000000                                             0201425716000101MARFRUTI COMERCIO DE FRUTAS LTDA-M      AV. FERNANDO FERRARI, 1001                     1000090200041PORTO ALEGRE   RS                                           000204
1                0025000011080       5500923-JULHO/24         0010231183                                   10100102311830108240000002019431041     08N25072418   000000000000                                             0203724279000144MARIA MALLMANN & CIA LTDA               AV. FERNANDO FERRARI, 1001                     1000090200041PORTO ALEGRE   RS                                           000205
1                0025000011080       5300566-JULHO/24         0010231264                                   10100102312640108240000000351430041     08N25072418   000000000000                                             0294815537000153MARIO AUGUSTO JACOBSEN-ME               AV. FERNANDO FERRARI, 1001                     1000090200041PORTO ALEGRE   RS                                           000206
1                0025000011080       5300537-JULHO/24         0010231345                                   10100102313450108240000000611010041     08N25072418   000000000000                                             0293481315000189MARISA ERTHAL DA MOTTA-ME               AV. FERNANDO FERRARI, 1001                     1000090200041PORTO ALEGRE   RS                                           000207
1                0025000011080       5501070-JULHO/24         0010231426                                   10100102314260108240000000673947041     08N25072418   000000000000                                             0206124533000161MERCADO PORTO GUERREIRO LTDA            AV. FERNANDO FERRARI, 1001                     1000090200041PORTO ALEGRE   RS                                           000208
1                0025000011080       5500765-JULHO/24         0010231671                                   10100102316710108240000000997261041     08N25072418   000000000000                                             0200246260000141MERCEARIA B.M LTDA                      AV. FERNANDO FERRARI, 1001                     1000090200041PORTO ALEGRE   RS                                           000209
1                0025000011080       5500765-JULHO/24         0010231590                                   10100102315900108240000000802121041     08N25072418   000000000000                                             0200246260000141MERCEARIA B.M LTDA                      AV. FERNANDO FERRARI, 1001                     1000090200041PORTO ALEGRE   RS                                           000210
1                0025000011080       5300628-JULHO/24         0010231752                                   10100102317520108240000000152219041     08N25072418   000000000000                                             0203205533000106MERCOPRINT SUPRIMENTOS P/INFORM.LT      AV. FERNANDO FERRARI, 1001                     1000090200041PORTO ALEGRE   RS                                           000211
1                0025000011080       5501046-JULHO/24         0010231833                                   10100102318330108240000000326283041     08N25072418   000000000000                                             0212538688000147MICHELE LEITES FLOR E COR               AV. FERNANDO FERRARI, 1001                     1000090200041PORTO ALEGRE   RS                                           000212
1                0025000011080       5501116-JULHO/24         0010231914                                   10100102319140108240000001154179041     08N25072418   000000000000                                             0237701795000175MM3 FRUTAS LTDA                         AV. FERNANDO FERRARI, 1001                     1000090200041PORTO ALEGRE   RS                                           000213
1                0025000011080       5501118-JULHO/24         0010232090                                   10100102320900108240000000554765041     08N25072418   000000000000                                             0238154042000150MM7 FRUTAS LTDA                         AV. FERNANDO FERRARI, 1001                     1000090200041PORTO ALEGRE   RS                                           000214
1                0025000011080       5501017-JULHO/24         0010232171                                   10100102321710108240000002316449041     08N25072418   000000000000                                             0227188834000390MS COMERCIO DE FRUTAS LTDA              AV. FERNANDO FERRARI, 1001                     1000090200041PORTO ALEGRE   RS                                           000215
1                0025000011080       5500739-JULHO/24         0010232252                                   10100102322520108240000000571434041     08N25072418   000000000000                                             0205370685000181MUSSOI FRUTAS E VERDURAS LTDA           AV. FERNANDO FERRARI, 1001                     1000090200041PORTO ALEGRE   RS                                           000216
1                0025000011080       5501018-JULHO/24         0010232333                                   10100102323330108240000003112979041     08N25072418   000000000000                                             0227435474000112NIKO COMERCIO DE FRUTAS E DOCES LT      AV. FERNANDO FERRARI, 1001                     1000090200041PORTO ALEGRE   RS                                           000217
1                0025000011080       5300654-JULHO/24         0010232414                                   10100102324140108240000000075989041     08N25072418   000000000000                                             0233475081000135NOBRE IND E COM TABACOS EIRELI          AV. FERNANDO FERRARI, 1001                     1000090200041PORTO ALEGRE   RS                                           000218
1                0025000011080       5500945-JULHO/24         0010232589                                   10100102325890108240000000895941041     08N25072418   000000000000                                             0211544812000114OLIVEIRA E SOUZA COM.DE ALIMENTOS       AV. FERNANDO FERRARI, 1001                     1000090200041PORTO ALEGRE   RS                                           000219
1                0025000011080       5500918-JULHO/24         0010232678                                   10100102326780108240000000449586041     08N25072418   000000000000                                             0289835672000120OSMAR NICOLINI E CIA LTDA               AV. FERNANDO FERRARI, 1001                     1000090200041PORTO ALEGRE   RS                                           000220
1                0025000011080       5300030-JULHO/24         0010232740                                   10100102327400108240000000344170041     08N25072418   000000000000                                             0288011895000100OSVALDO WOLTMANN                        AV. FERNANDO FERRARI, 1001                     1000090200041PORTO ALEGRE   RS                                           000221
1                0025000011080       5500886-JULHO/24         0010232821                                   10100102328210108240000001211893041     08N25072418   000000000000                                             0208923085000191OVOS DO CAMPO LTDA ME                   AV. FERNANDO FERRARI, 1001                     1000090200041PORTO ALEGRE   RS                                           000222
1                0025000011080       5500764-JULHO/24         0010232902                                   10100102329020108240000000876272041     08N25072418   000000000000                                             0206032852000147P.W COMERCIAL ATCADISTA DE FRUTAS       AV. FERNANDO FERRARI, 1001                     1000090200041PORTO ALEGRE   RS                                           000223
1                0025000011080       5501123-JULHO/24         0010233089                                   10100102330890108240000000226987041     08N25072418   000000000000                                             0247281253000144PAULO ROGERIO BOENO DE MOURA LTDA       AV. FERNANDO FERRARI, 1001                     1000090200041PORTO ALEGRE   RS                                           000224
1                0025000011080       5501040-JULHO/24         0010233178                                   10100102331780108240000001134097041     08N25072418   000000000000                                             0230622934000126PERGHER COM.DE HORT.ALIM. BEBIDA L      AV. FERNANDO FERRARI, 1001                     1000090200041PORTO ALEGRE   RS                                           000225
1                0025000011080       5501051-JULHO/24         0010233240                                   10100102332400108240000000558274041     08N25072418   000000000000                                             0216383692000134PETROSUL COM IMP. E EXP LTDA EPP        AV. FERNANDO FERRARI, 1001                     1000090200041PORTO ALEGRE   RS                                           000226
1                0025000011080       5501025-JULHO/24         0010233402                                   10100102334020108240000000460174041     08N25072418   000000000000                                             0205979827000102POMMAR COM. DE ALIMENTOS LTDA           AV. FERNANDO FERRARI, 1001                     1000090200041PORTO ALEGRE   RS                                           000227
1                0025000011080       5300586-JULHO/24         0010233577                                   10100102335770108240000000372726041     08N25072418   000000000000                                             0203863213000135PONTO IDEAL PADARIA CONF.ROTISSERI      AV. FERNANDO FERRARI, 1001                     1000090200041PORTO ALEGRE   RS                                           000228
1                0025000011080       5501067-JULHO/24         0010233658                                   10100102336580108240000000797764041     08N25072418   000000000000                                             0237566852000150PORTAL COMERCIAL DE MAMAO EIRELI        AV. FERNANDO FERRARI, 1001                     1000090200041PORTO ALEGRE   RS                                           000229
1                0025000011080       5500820-JULHO/24         0010233739                                   10100102337390108240000000586074041     08N25072418   000000000000                                             0208032675000124PORTAL DAS FRUTAS LTDA                  AV. FERNANDO FERRARI, 1001                     1000090200041PORTO ALEGRE   RS                                           000230
1                0025000011080       5500959-JULHO/24         0010233828                                   10100102338280108240000001138483041     08N25072418   000000000000                                             0214144835000120PORTO ALEGRE FRUTAS IND E COM ALIM      AV. FERNANDO FERRARI, 1001                     1000090200041PORTO ALEGRE   RS                                           000231
1                0025000011080       5500959-JULHO/24         0010233992                                   10100102339920108240000000881301041     08N25072418   000000000000                                             0214144835000120PORTO ALEGRE FRUTAS IND E COM ALIM      AV. FERNANDO FERRARI, 1001                     1000090200041PORTO ALEGRE   RS                                           000232
1                0025000011080       5300652-JULHO/24         0010234077                                   10100102340770108240000000189273041     08N25072418   000000000000                                             0223704161000161PORTO BALANCAS LTDA                     AV. FERNANDO FERRARI, 1001                     1000090200041PORTO ALEGRE   RS                                           000233
1                0025000011080       5501022-JULHO/24         0010234158                                   10100102341580108240000000453205041     08N25072418   000000000000                                             0228143553000112PRETTO COML.DE PLANTAS PAISAGISMO       AV. FERNANDO FERRARI, 1001                     1000090200041PORTO ALEGRE   RS                                           000234
1                0025000011080       5501022-JULHO/24         0010234239                                   10100102342390108240000000150188041     08N25072418   000000000000                                             0228143553000112PRETTO COML.DE PLANTAS PAISAGISMO       AV. FERNANDO FERRARI, 1001                     1000090200041PORTO ALEGRE   RS                                           000235
1                0025000011080       5500777-JULHO/24         0010234328                                   10100102343280108240000000562661041     08N25072418   000000000000                                             0206048063000102PRIMO COMERCIO DE FRUTAS LTDA.          AV. FERNANDO FERRARI, 1001                     1000090200041PORTO ALEGRE   RS                                           000236
1                0025000011080       5501014-JULHO/24         0010234492                                   10100102344920108240000000601767041     08N25072418   000000000000                                             0208220392000106PSPM HORTIFRUTIGRANJEIROS LTDA - M      AV. FERNANDO FERRARI, 1001                     1000090200041PORTO ALEGRE   RS                                           000237
1                0025000011080       5501048-JULHO/24         0010234565                                   10100102345650108240000000649942041     08N25072418   000000000000                                             0227912440000171QUALITA COMERCIO DE TOMATES LTDA        AV. FERNANDO FERRARI, 1001                     1000090200041PORTO ALEGRE   RS                                           000238
1                0025000011080       5300660-JULHO/24         0010234646                                   10100102346460108240000000379263041     08N25072418   000000000000                                             0224917191000119QUINTA DO MAR COM. DE PESCADOS LTD      AV. FERNANDO FERRARI, 1001                     1000090200041PORTO ALEGRE   RS                                           000239
1                0025000011080       5300610-JULHO/24         0010234727                                   10100102347270108240000000984607041     08N25072418   000000000000                                             0208779242000137RAY TRANSP.DE CARGAS E COM. DE ALI      AV. FERNANDO FERRARI, 1001                     1000090200041PORTO ALEGRE   RS                                           000240
1                0025000011080       5501074-JULHO/24         0010234808                                   10100102348080108240000000931486041     08N25072418   000000000000                                             0236502928000111RBL COM. E TRANSP. DE HORTIFRUTI L      AV. FERNANDO FERRARI, 1001                     1000090200041PORTO ALEGRE   RS                                           000241
1                0025000011080       5501004-JULHO/24         0010234980                                   10100102349800108240000000373078041     08N25072418   000000000000                                             0204004419000172RE SOL COM. DE FRUTAS E LEG. LTDA       AV. FERNANDO FERRARI, 1001                     1000090200041PORTO ALEGRE   RS                                           000242
1                0025000011080       5500985-JULHO/24         0010235065                                   10100102350650108240000000446519041     08N25072418   000000000000                                             0209223982000155REDE GRANDESUL DE SUPERMERCADOS AS      AV. FERNANDO FERRARI, 1001                     1000090200041PORTO ALEGRE   RS                                           000243
1                0025000011080       5300626-JULHO/24         0010235146                                   10100102351460108240000000092816041     08N25072418   000000000000                                             0210197500000119REGINA GONALVES BORGES(PLANETA LA      AV. FERNANDO FERRARI, 1001                     1000090200041PORTO ALEGRE   RS                                           000244
1                0025000011080       5500624-JULHO/24         0010235227                                   10100102352270108240000001724478041     08N25072418   000000000000                                             0294306370000286REICHERT-COML DE FRUTAS E PROD. AL      AV. FERNANDO FERRARI, 1001                     1000090200041PORTO ALEGRE   RS                                           000245
1                0025000011080       5500624-JULHO/24         0010235308                                   10100102353080108240000000740310041     08N25072418   000000000000                                             0294306370000286REICHERT-COML DE FRUTAS E PROD. AL      AV. FERNANDO FERRARI, 1001                     1000090200041PORTO ALEGRE   RS                                           000246
1                0025000011080       0100176-JULHO/24         0010235480                                   10100102354800108240000000207453041     08N25072418   000000000000                                             0100028740165000RENATO KELSCH                           AV. FERNANDO FERRARI, 1001                     1000090200041PORTO ALEGRE   RS                                           000247
1                0025000011080       5300414-JULHO/24         0010235553                                   10100102355530108240000000678584041     08N25072418   000000000000                                             0292648732000100RESTAURANTE E CHURRASC.BRECIENSE L      AV. FERNANDO FERRARI, 1001                     1000090200041PORTO ALEGRE   RS                                           000248
1                0025000011080       5500785-JULHO/24         0010235634                                   10100102356340108240000000667063041     08N25072418   000000000000                                             0205273112000130RICARDO ORLANDIN                        AV. FERNANDO FERRARI, 1001                     1000090200041PORTO ALEGRE   RS                                           000249
